:02000002D0002C
:1040000000400D0014810D00000006000C000501A9
:084010000401BD0B00000000DB
:0440180014720D0011
:10401C0009480A49884208B505D0094A824202D0AB
:10402C00121A03F0A5F80748074A0021121A03F0E8
:10403C00ADF8014808BD00BF04E5032084800D00E5
:10404C006CE503206CE50320F0E7032070B5074E08
:10405C00074C02F091F8A41BA4080025A54200D13E
:10406C0070BD56F8043B98470135F7E75C800D00AE
:10407C0080800D0000F042B808B500F093F8BDE860
:10408C00084002F03BB801F013BD01F011BD01F086
:10409C0017BD000008B5034A00210C2001F064FC98
:1040AC00FEE700BF65560D000078B0FA80F04009BD
:1040BC007047012303707047024A137883F00103A1
:1040CC001370704740E6032038B584690A4B0360CF
:1040DC0005467CB16368013B63605BB9236820468D
:1040EC009B689847A368013BA3601BB923682046D3
:1040FC00DB689847284638BDA87E0D0037B5194CAB
:10410C0002F056F94FF4165102F046F9204600F031
:10411C0039FD204600F042FF2046012100F0E3FC6F
:10412C0000254FF0011310492046C4E9045301F057
:10413C003AFF204601F09EF94FF0FF3302220B4963
:10414C000095072002F060F902F088F92946062054
:10415C0002F066FE0221072003B0BDE8304002F0F9
:10416C005FBE00BFD0E5032028720D00C5400D00D6
:10417C0038B50B4C0546204600F010FF20460121B7
:10418C0000F0B1FC4FF00113296800222046C4E96D
:10419C00042301F008FF2046BDE8384001F06AB95D
:1041AC00D0E503207FB52448244E00F014FD0620F2
:1041BC0002F060FE012805D1214B1B7813B933683E
:1041CC000133336002F0F4F80546062002F052FE8B
:1041DC00041E2CDA2D21284601F0D6FE61420A225B
:1041EC00284601F0EAFE284601F0D1FE02F0E0F884
:1041FC000546072002F03EFE041E1ADA2D21284641
:10420C0001F0C2FE61420A22284601F0D6FE284681
:10421C0001F0BDFE31680A22684601F051FE684685
:10422C00FFF7A6FF684601F0EEFD04B070BD214615
:10423C00D5E72146E7E700BFD0E50320CCE5032016
:10424C0040E6032038B5144D0021012001F0ACFBF1
:10425C00284602F027FC05F11C0001F0F9FF0024B0
:10426C000E4A0F496C6328462C8702F057FE0D4B03
:10427C00C3E90054C3E90244C3E904449C619C8330
:10428C00094C0721204600F04FFC2046034A074901
:10429C00BDE8384002F042BE90E503206CE50320F7
:1042AC00D5400D0070E50320D0E50320014B0D0037
:1042BC00704710B51021044602F035FE204610BDA3
:1042CC000EB403B503AB002153F8042B019301F09A
:1042DC0092FE02B05DF804EB03B0704773B5044670
:1042EC0008462279A36832B1A3B90B4902B0BDE8E4
:1042FC00704001F045BE094A267B094D0949647B93
:10430C00012E18BF2946CDE900140749FFF7D8FF45
:10431C0002B070BD054AEFE73F720D0036720D001A
:10432C003B720D0037720D0055720D002E720D0090
:10433C002DE9F04F85B01F46BDF93880BDF83C30F3
:10434C00A8EB0209A7EB010AB9F1000FB8BFC9F13C
:10435C000009BAF1000FB8BFCAF1000AD145834673
:10436C000C46154604DD3A462C4647460D4690460B
:10437C00BC4205DD2A464546904622463C46174639
:10438C003E1BB2B20092A8EB0502002AB8BF524203
:10439C000192C6F3C03202FA86F64545B4BF01223B
:1043AC004FF0FF3276100292BC421CDCDBF800208E
:1043BC000393D145D2F81880C7BF294622462A4616
:1043CC0021465846C047019A039BB61AB1B236B281
:1043DC00002E05DA029A1544009A56182DB236B200
:1043EC00013424B2E0E705B0BDE8F08F704710B49B
:1043FC0004682469A4465DF8044B604730B4046833
:10440C00BDF808500295A46BA44630BC604730B48C
:10441C000468BDF808500295E46BA44630BC6047B4
:10442C0070B4BDF90C50BDF810600468CDE90356AA
:10443C00246CA44670BC60472DE9F3411C4603680C
:10444C00BDF820805B6905461646013C34440F4696
:10445C0024B298472B68CDF8048000949C6A2846B7
:10446C003B4632463946A0472B68DB6A284602B0E9
:10447C00BDE8F04118472DE9F3411D460368BDF82E
:10448C0020805B69044617460E469847CDE90078B4
:10449C0022686B1E3344956A20461BB23A4631465D
:1044AC00A8472368DB6A204602B0BDE8F0411847F4
:1044BC002DE9F3471E460368BDF928905B69BDF8EA
:1044CC002C800C460546174698472644B4422B6868
:1044DC000BDACDF80080D3F820A021464B463A46A3
:1044EC0028460134D04724B2F0E7DB6A284602B0F4
:1044FC00BDE8F047184713B502680191B0F90E10EA
:10450C000091146CB0F90C3000221146A04702B097
:10451C0010BD2DE9F3471D460368BDF82C805B697F
:10452C00BDF9289004460F46164698472368CDF8E7
:10453C000080D3F824A032462B4639462046D0477B
:10454C002368CDF8008009F1FF323244D3F824A05F
:10455C0039462B46204612B2D0472368CDF800804E
:10456C00D3F820A032464B4639462046D0476B1E26
:10457C00D9192368CDF800801D6A20464B46324677
:10458C0009B2A8472368DB6A204602B0BDE8F047B1
:10459C00184770472DE9F74399421646BDF9287024
:1045AC00BDF82C90026880460D461C4613D1BE42C5
:1045BC00C8BF3346CDF82890C4BF3E461F467B1C6F
:1045CC00946B9B1B1BB2324629464046A44603B053
:1045DC00BDE8F0436047BE420AD19942C2BF0B46C8
:1045EC0025461C46631CCDF82890D46B5B1BE9E771
:1045FC0053699847CDE90079D8F8003040469F6A56
:10460C00324623462946B847D8F80030DB6A404684
:10461C0003B0BDE8F043184701F00303B0F90A20DA
:10462C008376C907B0F9083059BF8381C281828172
:10463C00C381704730B54281C281074A074D018161
:10464C00002481814FF0FF31C0E905124460056000
:10465C0004610477046230BD010100017C770D0018
:10466C002DE9F04F89B0CDE902120268BDF94880FE
:10467C000493BDF94C3052690593BDF850A0044623
:10468C00904718F107024FF0000648BF08F10E02E0
:10469C004FEAE20B01963546039B019ABDF90410D3
:1046AC009A18059B8B4212B227DD049B33444FF0C2
:1046BC00000906930FFA89F080451FFA89F117DD7E
:1046CC004F0705BF069BC0106D001D5C18BFEDB2F7
:1046DC002B060AD5029B206807921944836909B2FC
:1046EC001F4620465346B847079A09F10109E1E7EE
:1046FC00019B013301935E44CEE72368DB6A2046BD
:10470C0009B0BDE8F04F18472DE9F04F2DED028BA5
:10471C0091B01646026ABDF874809DF878509DF8E9
:10472C007C4003911F46BDF8703004938346002AE9
:10473C0040F0C580B0F90C308B4240F34C81B0F99D
:10474C000E30B34240F34781062313FB0513002BB5
:10475C0040F3418106EBC403002B40F33C81037F03
:10476C001BB9AF2F84BF0137FFB2DBF800305846BE
:10477C005B6998470522099200220592984A07EB3B
:10478C008703D3180C93B3B20693059A0C9B9B5CCE
:10479C000793ABB20B93BDF80C300893039B02FB51
:1047AC0005F919FA83F90FFA89F308EE103A082380
:1047BC000A93039B02EB030A4FF000090FFA8AFAE3
:1047CC00079ADBF80030D20752D5012D1FFA89F277
:1047DC003ED1012C3CD19B6906991F46049B0A448F
:1047EC0012B251465846B84709F101034FFA83F902
:1047FC00079B5B0807930A9B013B13F0FF030A938B
:10480C00DED1059F01377BB20593099B013B13F069
:10481C00FF030993B9D1049B43450FD0012DDBF85D
:10482C0000303BD1012C39D10899CDF800800531ED
:10483C001C6A3246082309B25846A047DBF8003000
:10484C00DB6A584611B0BDEC028BBDE8F04F18473F
:10485C00069914FB02F20A44049901910094DB6955
:10486C0018EE101A1F4612B22B465846B847BBE733
:10487C00049A4245B8D0012D1FFA89F207D1012CB8
:10488C0005D19B6906991F460A444346A8E7069939
:10489C00CDF8048014FB02F20A44DFE70B9ACDF842
:1048AC00048002EB8201089AE4000A441146009449
:1048BC00DC6932462B4609B25846A047BEE7137A4C
:1048CC00516812680D92FF1AFFB201EBC70331F861
:1048DC00372006929A780992DA780B92012D93F987
:1048EC00052093F906A00A9201D8012C57D9BDF9DD
:1048FC00283008930FFA8AF30793DBF800305846F8
:10490C005B699847B3B24FF000080E931AFA86F31E
:10491C00C14647460F930B9B9F428FD2079B0E9A23
:10492C003B4403FB0423002205920F9A1BB202EBBB
:10493C00070A08EE103A0FFA8AFA4346099A0599C3
:10494C00914241D25A1CD2B25B070C9207D1069B02
:10495C0006990D9A01339BB212F80190069319F047
:10496C00800F12D0012DDBF80030BDF80C101AD1DD
:10497C00012C18D10A9A9B691144059A11441E46C0
:10498C005246049B09B25846B047059E0136F3B215
:10499C004FEA490905935FFA89F90C9BCEE700238E
:1049AC00CDE90733A9E70598089A024402FB0511E3
:1049BC00049ACDE90042DB6918EE102A1E4609B2B2
:1049CC002B465846B047E0E7099B013798445FFAFD
:1049DC0088F8FFB29FE711B0BDEC028BBDE8F08FF9
:1049EC0072720D00F0B5026A85B004460B46002ABF
:1049FC0034D10A2908D1438A0282427E03EBC203D6
:104A0C006382012005B0F0BD0D29FAD0E17E007E55
:104A1C00657E71B1B4F91060062111FB0061B4F927
:104A2C000C60B142C1BFB4F91210228201EBC50275
:104A3C006282E28A0192A28A0092CDE90205B4F95F
:104A4C001220B4F910102046FFF75EFE237E228A56
:104A5C0003EB430302EB43032382D2E70A2907D17A
:104A6C0000230382937A417E428A01FB0323C7E72A
:104A7C000D29C6D0157AA942C3D3517A9942C0D315
:104A8C0051685D1BEDB201EBC505AF782FB3E9782A
:104A9C0019B3E17E007E667E91B195F9051039441B
:104AAC00B4F9107000FB0171B4F90C70B94207DD58
:104ABC0000272782B4F91210927A02FB0612628246
:104ACC00E28A0192A28A0092CDE90206B4F9122080
:104ADC00B4F910102046FFF717FE2979237E228A9D
:104AEC0001FB0323B8E7012938BF01210176417688
:104AFC007047000010B5064B03600446006D08B10A
:104B0C0000F0C2FD204600F0D1F8204610BD00BFD9
:104B1C00D4770D0010B50446FFF7ECFF204670214A
:104B2C0002F001FA204610BD30B585B004460D46A2
:104B3C0002F0CCF9104A1149CDE901214FF0FF32B6
:104B4C008021034600922046202200F035F90C4BC0
:104B5C0023600023C4E9143504F1580000F054F824
:104B6C0004F1600000F050F804F1680000F04CF81B
:104B7C00204605B030BD00BF801A0600A08601009B
:104B8C00D4770D0013B50446503000F075FD636DFD
:104B9C00D90705D50222042104F1580000F048F889
:104BAC00636D9A0705D50022032104F1600000F023
:104BBC003FF8636D5B0705D50222114604F16800CE
:104BCC0000F036F8012300933C220221204600F02D
:104BDC00F3F902B010BD10B5436DD907044602D5E8
:104BEC00583000F032F8636D9A0703D504F1600079
:104BFC0000F02BF8636D5B0705D504F16800BDE888
:104C0C00104000F022B810BD00210A22C0E90012A9
:104C1C007047002310B50446C171837188B202F04D
:104C2C0029F908B10323A37100F01EFD206010BD0B
:104C3C0038B50C4605461146A0B202F0F1F82146F3
:104C4C002846BDE83840FFF7E4BF38B50446C079C4
:104C5C0002F010F9A579003825F0080318BF0120DF
:104C6C00C5F340058542A3710AD000F0FDFCA37981
:104C7C00206083F00203A371A079C0F3C00038BD9B
:104C8C0000F0F2FC2368C01AA3889842F4D3A379ED
:104C9C0003F00103AB42EFD000F0E6FCA3792060F7
:104CAC0083F0010343F00803E5E7000010B5044B63
:104CBC0003600446C06A08B100F002FF204610BD34
:104CCC00E07C0D0010B50446FFF7F0FF20465021A4
:104CDC0002F029F9204610BD002910B54BDBB0F9C4
:104CEC000C408C4247DD002A45DBB0F90E40944263
:104CFC0041DD847E022C1FD0032C26D0012C04D144
:104D0C000489D24314440A4621B2012B23D0022B2E
:104D1C0032D083BB002A13460489C06AB8BFD31DA6
:104D2C00DB1013FB041102F0070201239340425CD9
:104D3C0022EA030242541EE00489C94321444489F7
:104D4C00D243224409B212B2DFE74489C9430C446E
:104D5C00114622B2D9E7002A04891346B8BFD31DE5
:104D6C00DB1013FB0411C36A02F00700012282401E
:104D7C00585C02435A5410BD002A13460489C06A79
:104D8C00B8BFD31DDB1013FB041102F00702012383
:104D9C0003FA02F2435C5A40CCE710B5044690F992
:104DAC003600012180B202F04CF8606A18B1BDE8FF
:104DBC00104000F00CBF10BD70B504461D46002617
:104DCC00FFF738FC114B2360666215B902F07EF8D0
:104DDC000546FF2384F8333084F836309DF91030C3
:104DEC0084F837300A4BA363012384F83C30059BCD
:104DFC00A3644FF6FF72069BA286C4E90A5626648A
:104E0C00A4F84460E364204670BD00BFE07C0D0054
:104E1C002C780D00F8B50446806A0D4690B194F9D3
:104E2C00301001F0E7FBA06A036800219B689847EB
:104E3C00A06A036829469B689847A06ABDE8F840B9
:104E4C0001F0DFBB94F93530014698B201F0F9FF5F
:104E5C00606A20B12946BDE8F84000F03FBF082643
:104E6C00802794F9330005EA070180B201F0E9FFCD
:104E7C0094F93400012180B201F0E3FF94F934007D
:104E8C00002180B201F0DDFF013E4FEA5707E8D167
:104E9C00F8BD38B50446806A0D4680B1A16C01F0AE
:104EAC009BFB002D204614BFA721A621FFF7B2FFC4
:104EBC00A06A88B1E16CBDE8384001F08DBB606A36
:104ECC0018B104F1380100F09BFE94F93600002172
:104EDC0080B201F0B6FFE4E72046BDE83840FFF7AA
:104EEC005CBF2DE9F8430446806A0D468F1840B329
:104EFC0094F9301001F07EFBA06A036800219B68D6
:104F0C0098470126BD42A06A17D01F2E0CD901F07C
:104F1C0078FB94F93010A06A01F06CFBA06A03686E
:104F2C0000219B6898470126A06A15F8011B0368AD
:104F3C0001369B689847F6B2E4E7BDE8F84301F008
:104F4C0060BB94F93530014698B201F07AFFAF425C
:104F5C0022D0606A15F8019B18B1494600F0BEFEDC
:104F6C00F5E708264FF0800894F9330009EA0801A8
:104F7C0080B201F066FF94F93400012180B201F097
:104F8C0060FF94F93400002180B201F05AFF013E19
:104F9C004FEA5808E8D1DAE7BDE8F883B0F90A30EF
:104FAC00DA1D48BF03F10E02B0F90830C06AD21006
:104FBC005A43002102F0EAB82DE9FF411E46C36AAC
:104FCC009DF8288004460F461546B3B12046FFF7DE
:104FDC00E5FFB4F90A00B4F9081020281FDC2023DF
:104FEC000122CDE90132203873237339009300EB91
:104FFC00D070894B01EBD1711FE0B0F90A30D81D8C
:10500C0048BF03F10E00B4F90830C010584300F04B
:10501C004FFDE0620028D9D104B0BDE8F0814023F7
:10502C004FF0010CCDE9013C52234038523900932A
:10503C007A4B00EBD07001EBD17140F34F0241F38E
:10504C004F012046FFF70CFBA06A84F83170002852
:10505C0078D0002D74D1B4F90A30202B0CBF3C252C
:10506C003D2584F83050B8F1000F01D001F0B8FAAA
:10507C00FEB194F9370000281BDB012180B201F04E
:10508C00CFFE94F93700012180B201F0DAFE012045
:10509C0000F0FAFF94F93700002180B201F0D1FE44
:1050AC000A2000F0F1FF94F93700012180B201F0E1
:1050BC00C8FEA06A002874D0A16C01F08DFA0422FD
:1050CC0057492046FFF70DFFA17A0139C9B2204696
:1050DC00FFF7A0FE534904222046FFF702FF94F984
:1050EC003130012B0CBF102114212046FFF792FE0A
:1050FC0004224D492046FFF7F4FEA3684B4A934225
:10510C005CD14B4904222046FFF7EBFED921204607
:10511C00FFF780FE94F93130012B0CBF2221F121D5
:10512C002046FFF777FE204642490622FFF7D9FEBC
:10513C00A06A002863D0E16C01F04EFA01206BE705
:10514C006DB28EE794F93500012180B201F068FE52
:10515C0094F93600012180B201F062FE94F9360018
:10516C00012180B201F06DFE656A3DB1B8F1000F0E
:10517C003FF47EAF284600F019FD79E794F933002F
:10518C00012180B201F04CFE94F93400012180B26F
:10519C0001F046FE94F93400294680B201F051FE2C
:1051AC0066E7606A18B104F1380100F029FD94F942
:1051BC003600002180B201F044FE80E71E4A934283
:1051CC000ED11E4903222046FFF78BFE94F9313095
:1051DC00012B0CBF9F21CF212046FFF71BFE95E72B
:1051EC00174A934292D1174903222046FFF779FEC2
:1051FC0094F93130012B0CBF1021AF21ECE794F95D
:10520C003600012180B201F01CFE606A002895D0A6
:10521C0000F0DDFC92E700BFF87A0D0038780D0045
:10522C00407D0D00447D0D00487D0D008000200068
:10523C00527D0D004C7D0D0080004000567D0D0010
:10524C0060001000597D0D0070B5002ABDF810509B
:10525C003DDBB0F90A40944239DD0029BEBF5B1832
:10526C001BB20021B0F90840CE18A642C4BF631A85
:10527C001BB2002B2BDDC06AD61014FB06110144A7
:10528C0002F0070001228240012DD2B216D0022D6D
:10529C000BD0E5B9D243D2B20B44994217D011F8D6
:1052AC00010B104001F8010CF7E70B4499420ED0AA
:1052BC0011F8010B504001F8010CF7E70B4499422F
:1052CC0005D011F8010B104301F8010CF7E770BD84
:1052DC00F0B50029BDF8146076DBB0F90850A9428E
:1052EC0072DA002ABCBFD21813B2B0F90A40B8BFA8
:1052FC000022D718A742C4BFA31A1BB2002B63DD30
:10530C00C2F3C404C76A15FB041112F00702DBB226
:10531C0007EB010423D0C2F10802D2B22C4D934208
:10532C003CBF4FF0FF0CA2EB030EAD5C3CBF4CFA44
:10533C000EFC0CEA0505012E07D0022E2ED04EB91C
:10534C0017F801C02CEA050503E017F801C045EA7F
:10535C000C057D54934237D3B0F908100C449A1ABB
:10536C00D2B2072A0ED9022E1DD113462178C94379
:10537C002170083BB0F90810DBB2072B0C44F5D8B0
:10538C0002F0070202B3134B012E9B5C19D0022EC4
:10539C001BD0CEB9227822EA030314E017F801C01F
:1053AC0085EA0C05D5E7002E14BFFF250025134612
:1053BC002570083BB0F90810DBB2072B0C44F7D86A
:1053CC00DEE7227813432370F0BD22785340FAE7CE
:1053DC00307D0D00387D0D0070B41446827EBDF812
:1053EC000C60022A0DD0032A18D0012A11D102898F
:1053FC00E443144424B203960A46214670BCFFF7DA
:10540C0067BF42890589E44319441444691A24B2DC
:10541C0009B20396224670BCFFF716BF45891944A2
:10542C00691A09B2E7E730B41446827EBDF8085019
:10543C00022A0DD0032A18D0012A11D1E2180489AE
:10544C00A41A24B202950A46214630BCFFF7FCBED2
:10545C000289C9431144E2184489A41A09B224B23E
:10546C000295224630BCFFF733BF4289C943114431
:10547C0009B2E7E72DE9F8430446806A002842D0D8
:10548C00A16C01F0A9F8474905222046FFF729FD38
:10549C00217A01392046C9B2FFF7BCFCB4F90A30B5
:1054AC00DE1D48BF03F10E06D4E90A052389F61068
:1054BC0013FB06F615FA86F600283AD094F930104C
:1054CC0001F098F8A06A036840219B68984701276F
:1054DC00B542A06A24D01F2F0CD901F092F894F990
:1054EC003010A06A01F086F8A06A036840219B681E
:1054FC0098470127A06A15F8011B036801379B68C0
:10550C009847FFB2E4E7606A18B104F1380100F083
:10551C0077FB94F93600002180B201F092FCB2E7DF
:10552C0001F06FF8A06A78B3E16CBDE8F84301F0C4
:10553C0053B894F93500012180B201F082FCB542D8
:10554C00F0D0606A15F8019B18B1494600F0C6FB13
:10555C00F5E708274FF0800894F9330009EA0801B1
:10556C0080B201F06EFC94F93400012180B201F09C
:10557C0068FC94F93400002180B201F062FC013F18
:10558C004FEA5808E8D1DAE794F93600012180B2E5
:10559C0001F057FC606A18B1BDE8F84300F017BB86
:1055AC00BDE8F8835C7D0D0008B5024B1B689B6859
:1055BC00019308BD6802030008B5024B1B68DB6849
:1055CC00019308BD6802030008B5024B1B689B6879
:1055DC00019308BD2C02030008B5024B1B68DB6865
:1055EC00019308BD2C02030008B5024B1B681B6914
:1055FC00019308BD2C02030008B5024B1B685B69C4
:10560C00019308BD2C02030008B5024B1B689B6973
:10561C00019308BD2C02030008B5024B1B68DB6923
:10562C00019308BD2C02030008B5024B1B681B6AD2
:10563C00019308BD2C02030008B5024B1B685B6983
:10564C00019308BD6C02030008B5024B1B685B6834
:10565C00019308BD1802030008B5024B1B68DB68F8
:10566C00019308BD1802030008B5024B1B685B6967
:10567C00019308BD1802030008B5024B1B681B6B95
:10568C00019308BD4802030008B5024B1B685B6B15
:10569C00019308BD4802030008B5024B1B685B6C04
:1056AC00019308BD4802030008B5024B1B689B6CB4
:1056BC00019308BD4802030008B5024B1B685B69E7
:1056CC00019308BD6402030008B5024B1B681B6AFA
:1056DC00019308BD6402030008B5024B1B689B6A6A
:1056EC00019308BD6402030008B5024B1B681B68DC
:1056FC00019308BD3C02030008B5024B1B68DB6834
:10570C00019308BD3C02030008B5024B1B681B69E2
:10571C00019308BD3C02030008B5024B1B685B6992
:10572C00019308BD3C02030008B5024B1B689B6942
:10573C00019308BD3C02030008B5024B1B68DB69F2
:10574C00019308BD3C02030008B5024B1B681B6AA1
:10575C00019308BD3C02030008B5024B1B689B6A11
:10576C00019308BD3C02030008B5024B1B681B6883
:10577C00019308BD2802030008B5024B1B68DB68C7
:10578C00019308BD2802030008B5024B1B689B69F6
:10579C00019308BD2802030008B5024B1B68DB69A6
:1057AC00019308BD2802030008B5024B1B681B6A55
:1057BC00019308BD2802030008B5024B1B685B6A05
:1057CC00019308BD2802030008B5024B1B689B6AB5
:1057DC00019308BD2802030008B5024B1B68DB6A65
:1057EC00019308BD2802030008B5024B1B681B6B14
:1057FC00019308BD2802030008B5024B1B685B6BC4
:10580C00019308BD2802030008B5024B1B681B6CF2
:10581C00019308BD2802030008B5024B1B689B6965
:10582C00019308BD3802030008B5024B1B68DB6905
:10583C00019308BD3802030008B5024B1B681B6AB4
:10584C00019308BD3802030008B5024B1B689B6A24
:10585C00019308BD3802030008B5024B1B681B6B93
:10586C00019308BD3802030008B5024B1B689B6B03
:10587C00019308BD3802030008B5024B1B681B6876
:10588C00019308BD3002030008B5024B1B685B692D
:10589C00019308BD3002030008B5024B1B68DB699D
:1058AC00019308BD3002030008B5024B1B681B6A4C
:1058BC00019308BD3002030008B5024B1B685B6AFC
:1058CC00019308BD3002030008B5024B1B68DB6B6B
:1058DC00019308BD3002030008B5024B1B681B6C1A
:1058EC00019308BD3002030008B5024B1B685B6CCA
:1058FC00019308BD3002030008B5024B1B681B68FE
:10590C00019308BD4C02030008B5024B1B685B6891
:10591C00019308BD4C02030008B5024B1B681B69C0
:10592C00019308BD4C02030008B5024B1B685B6970
:10593C00019308BD4C02030008B5024B1B689B6920
:10594C00019308BD4C02030008B5024B1B68DB69D0
:10595C00019308BD4C02030008B5024B1B681B6A7F
:10596C00019308BD4C02030008B5024B1B685B6B2E
:10597C00019308BD6002030008B5024B1B681B6D48
:10598C00019308BD6002030008B5024B1B685B68FD
:10599C00019308BD2002030008B5024B1B685B692C
:1059AC00019308BD2002030008B5024B1B68DB6A9B
:1059BC00019308BD2002030008B5034B1B68D3F804
:1059CC008830019308BD00002002030008B5034B8A
:1059DC001B68D3F89430019308BD0000200203002B
:1059EC0008B5024B1B685B68019308BD40020300BD
:1059FC0008B5024B1B689B68019308BD400203006D
:105A0C0008B5024B1B68DB68019308BD400203001C
:105A1C0008B5024B1B681B69019308BD40020300CB
:105A2C0008B5024B1B685B69019308BD400203007B
:105A3C0008B5024B1B689B69019308BD400203002B
:105A4C0008B5024B1B68DB69019308BD40020300DB
:105A5C0008B5024B1B681B6A019308BD400203008A
:105A6C0008B5024B1B681B6B019308BD4002030079
:105A7C0008B5024B1B685B6B019308BD4002030029
:105A8C0008B5024B1B681B6C019308BD4002030058
:105A9C0008B5024B1B685B6C019308BD4002030008
:105AAC0008B5024B1B68DB6B019308BD4402030075
:105ABC0008B5024B1B681B68019308BD1C02030050
:105ACC0008B5024B1B685B68019308BD1C02030000
:105ADC0008B5024B1B689B68019308BD1C020300B0
:105AEC0008B5024B1B685B6A019308BD1C020300DE
:105AFC0008B5024B1B68DB6B019308BD1C0203004D
:105B0C0008B5024B1B685B6C019308BD1C020300BB
:105B1C00002240681146FFF79BBF002240681146E7
:105B2C00FFF7A6BF40680022FFF79ABF406800222B
:105B3C0081F00101FFF784BF002340681A46194623
:105B4C00FFF776BF002340681A461946FFF768BF77
:105B5C00002240681146FFF75BBF002240681146E7
:105B6C00FFF746BF406800220221FFF749BF002320
:105B7C0040681A46FFF734BF024B03225A60024AB0
:105B8C001A60704750E603206C7D0D000021FFF772
:105B9C00A3BE0021FFF7A8BE10B50446084621702D
:105BAC00FFF77AFE00236360204610BD10B5044653
:105BBC000078FFF7EBFF48B920784FF6FF71FFF73D
:105BCC005BFE2078BDE81040FFF7E3BF10BD007806
:105BDC00FFF7DFBF400830B5186000241868884212
:105BEC00E5B206D90134082C02D040081860F5E75C
:105BFC000725024B5B5D137030BD00BFA07D0D000F
:105C0C002DE9F04306468FB000780C46FFF7BEFF37
:105C1C0000281BDB35781422002109A801F0B6FA04
:105C2C000B23002209A92846ADF82430FFF744FEC7
:105C3C009DF82D3013B19DF82C5055B10027B94665
:105C4C00B846012523795DB1C3B100200FB0BDE882
:105C5C00F083DDF830809DF834909DF83570F1E7D5
:105C6C00002B35D1A368434508D18DF820908DF8D1
:105C7C002170BDF82020A3899A42E6D00023A168A8
:105C8C008DF80F300A9804AB0DF10F02FFF7A2FF4D
:105C9C00217985B989B9A36843450ED38DF8209035
:105CAC008DF82170BDF82020A3899A4205D1049B60
:105CBC00434502D1C9E70029F9D100230193637B45
:105CCC0000939DF80F20237B3078FFF7FDFDBCE798
:105CDC00CDE900552B462A460121F5E708B5007899
:105CEC00FFF7D2FDC0B208BD10B50446006818B16C
:105CFC00FFF7E6FE0023236010BD10B50446FFF746
:105D0C00F3FF204610BD000010B5094B094C0222D0
:105D1C0000201A60084B2060A080A071A360FFF7E0
:105D2C0033FE2046054A0649BDE8104001F0F6B89E
:105D3C0064E6032058E603200000FFFF6CE5032017
:105D4C00075D0D0010B5044601F056FA0138231812
:105D5C002046834206D90278197800F8011B03F813
:105D6C000129F6E710BD70B50C46911E2229054697
:105D7C0022D820466DB1B5FBF2F602FB1655E9B2FE
:105D8C00092D94BF30315731C9B200F8011B35468B
:105D9C00F0E7024623443021934202D902F8011B5A
:105DAC00FAE71A1A834238BF002200238354204694
:105DBC00FFF7C8FF204670BD0020FCE738B5031E76
:105DCC000C4615460EDAB3F1004F4FF02D0214BFFE
:105DDC005842184601230A702A461944FFF7C3FF9C
:105DEC00204638BD0123F9E770B586B0064601ADF3
:105DFC00684600F071FA0FCD341D0FC42B68237068
:105E0C00304606B070BD10B504460068FFF758FE6A
:105E1C00204610BD10B50446006808B1FFF750FECF
:105E2C000023C4E90133236010BD38B504460D4688
:105E3C0000680131FFF74CFE10B1C4E900050120E8
:105E4C0038BD10B50368044623B143688B4201D3B7
:105E5C00012010BD2046FFF7E8FF0028F9D0A36809
:105E6C00002BF5D122681370F2E737B50D461146B9
:105E7C0001920446FFF7E5FF019A28B92046FFF787
:105E8C00C9FF204603B030BDA2602946206801F04E
:105E9C006FF92268A3680021D154F2E713B50446C8
:105EAC0059B10846019101F0A7F901990246204623
:105EBC00FFF7DBFF204602B010BDFFF7ABFFF9E7A1
:105ECC0010B504468AB00023C4E90033A3602373E1
:105EDC00084601A9FFF772FF01A92046FFF7DEFF74
:105EEC0020460AB010BD10B50446006808B1FFF793
:105EFC00DBFB204610BD10B58368044613B10322AA
:105F0C0001469847204610BD10B5064C002320468C
:105F1C002360FFF7C1FB2046034A0449BDE810404B
:105F2C0000F0FCBF68E603206CE50320F35E0D0077
:105F3C00F8B506460D468F180024BD420CD03368C8
:105F4C0015F8011B9B6830469847031E01DB1C4467
:105F5C00F3E7002C08BF1C462046F8BD13B50446D9
:105F6C00084659B1019101F047F923680199DB68A2
:105F7C000246204602B0BDE81040184702B010BDE2
:105F8C0008B5FFF7EBFF08BD03689B68184738B5E9
:105F9C000D210546FFF7F8FF0A2104462846FFF7B6
:105FAC00F3FF204438BD38B50546FFF7D7FF04464C
:105FBC002846FFF7ECFF204438BD30B58BB00023EA
:105FCC008DF82430012A98BF0A2209AC0D46B1FB8A
:105FDC00F2F101FB125303F0FF03092B94BF303392
:105FEC003733DBB2AA4204F8013DEFD92146FFF763
:105FFC00B5FF0BB030BD2DE9F04186B000AF0546C2
:10600C000E46381D142114463B60FFF769FD13281A
:10601C000ED8391D2846FFF7A1FF04461EB12846AD
:10602C00FFF7B5FF044420461837BD46BDE8F081A4
:10603C0000F1080323F00703E846ADEB030D2246FD
:10604C00411C3B686846FFF74BFD69462846FFF745
:10605C0085FF0446C546E1E7002340681A46194609
:10606C00FFF7DEBC014B024A1A6070476CE6032056
:10607C00B07D0D00024B1A68024B1A60704700BFCE
:10608C0004E5032070E603200021FFF785BC10B562
:10609C000446FFF730FF204610BD00000348044AB9
:1060AC0004490023836000F039BF00BF74E603206D
:1060BC006CE503209B600D00014B1860704700BF1E
:1060CC0008E5032008B50B4B43B100F071F90368E8
:1060DC001B699847002801DDAFF30080064B43B1E4
:1060EC0000F012FA03681B699847002801DDAFF332
:1060FC00008008BD000000000000000008B5FFF79C
:10610C00E1FFFFF7B1FA014B186008BDD4E703209B
:10611C000248034A0349121A01F02AB800F403207A
:10612C0004F4032080800D0007B5002300931A4669
:10613C006FF07701FFF74AFC03B05DF804FB000039
:10614C0007B543880A2B08D0502B0BD1094B1B6881
:10615C004BB103B05DF804EB1847FFF7E5FF03B054
:10616C005DF804FB002300931A466FF07701FFF7EC
:10617C002DFCF4E788E6032038B5124C1248134D79
:10618C000021FFF7BDFC2368AB42114B0CBF012271
:10619C0000221A7002D0FFF7BBFF2560FFF754FAFC
:1061AC00044600F0FBFF0B4B13B12046AFF300800D
:1061BC0000210848FFF774FCBDE838400648002170
:1061CC00FFF7FABB00F40320C5600D001E1C279AD4
:1061DC0084E60320000000004D610D00704710B5EF
:1061EC001821044600F09FFE204610BDF0B5037D3B
:1061FC00062B8DB00E4600F104074FF0000412D0B0
:10620C0000F1080515F8011D0A223046FFF7D5FEEE
:10621C00AF42044419D0002CF4D02E213046FFF7A5
:10622C00B3FE0444EEE72F236A4639460A208DF864
:10623C000040FFF741FA684600F0DEFF3368024683
:10624C00DB68694630469847044620460DB0F0BDE1
:10625C0010B5054B0446112240F8043B002100F018
:10626C0095FF204610BD00BFD87D0D000346074AA0
:10627C0010B543F8042B01F1100251F8044B43F80C
:10628C00044B9142F9D10A781A7010BDD87D0D00DB
:10629C00037D042B04D14068003818BF01207047DF
:1062AC00062B07D143683BB983682BB9C3681BB96C
:1062BC000069F1E7002070470120704710B59DF888
:1062CC00084044EA032343EA024242EA0161042300
:1062DC004160037510BD000013B5054B0360CB780E
:1062EC0000938B784A780978FFF7E8FF02B010BD6D
:1062FC00D87D0D0041747047704708B50021007CB3
:10630C00FFF71AFB40EAE07008BD08B50121007CDC
:10631C00FFF712FB40EAE07008BD08B5007CFFF700
:10632C0003FB20EAE07008BD08B5007CFFF7F4FA27
:10633C0020EAE07008BD13B50446007C0191FFF71C
:10634C00F3FA0028019901DC607C20B1207CFFF776
:10635C00FBFA20EAE07002B010BD007CFFF7FCBA3B
:10636C0010B51421044600F0DEFD204610BD0000DF
:10637C0010B54FF47A73044608460021C4E90113A2
:10638C00044B23600123207463741146FFF7B4FAA5
:10639C00204610BDEC7D0D00007C0022FFF7B4BA46
:1063AC0010B514220446002100F0F0FE204610BD6A
:1063BC0010B5104C88B003A8FFF7F2FF2178BFF39B
:1063CC005B8F11F0010111D120460191FDF76CFE9C
:1063DC00019958B103AA0848FFF7CAFF2046FDF7F8
:1063EC0068FE064A0649044800F098FD024808B0C9
:1063FC0010BD00BF8CE6032090E603206CE5032063
:10640C0005630D00004700002DE9FF4100241D46E7
:10641C000F4690460646FFF7FFF8A5424FF00403DF
:10642C00ADF80D408DF80C308DF80F40A2BF9DF8E3
:10643C0028308DF80E3003AC0749009443463A4699
:10644C003046A8BF8DF80D50FFF7DEF8B0FA80F09B
:10645C00400904B0BDE8F08111640D00FFF7E4B809
:10646C0070474174704708B5007CFFF775F920EA56
:10647C00E07008BD08B5007CFFF746F920EAE07033
:10648C0008BD08B5007CFFF74FF940EAE07008BD85
:10649C0008B5007CFFF740F940EAE07008BD007CCD
:1064AC00FFF74AB937B5457C04462DB1207C03B0C3
:1064BC00BDE83040FFF720B9007C0191FFF74CF9A3
:1064CC0000280199F2DC284603B030BD10B5142128
:1064DC00044600F028FD204610BD000010B54FF01A
:1064EC00000C0446084611464FF47A72C4E901C206
:1064FC00044A22600122207462741A46FFF7F4F8F1
:10650C00204610BD1C7E0D0013B50E4C2178BFF338
:10651C005B8F11F0010112D120460191FDF7C4FDF2
:10652C00019960B1084A094B0948FFF7D7FF20468B
:10653C00FDF7BFFD074A0849054800F0EFFC044889
:10654C0002B010BDA4E60320A8E603202CE703202C
:10655C00B0E703206CE503206D640D007047F8B5BF
:10656C00064615460C468F18BC4206D0336814F804
:10657C00011B9B6830469847F6E72846F8BD007C1F
:10658C000022FFF711B9007C0021FFF715B9007C40
:10659C000021FFF719B9007C0021FFF71DB9007C21
:1065AC000021FFF721B910B51421044600F0BBFC03
:1065BC00204610BD10B54FF47A73044608460021EE
:1065CC00C4E90113034B236020741146FFF71CF937
:1065DC00204610BD4C7E0D00007C0022FFF7C4B895
:1065EC000023007C1A461946FFF7C6B8007C00222F
:1065FC00FFF7CAB8C9B2FFF7F9BF007C0022FFF75A
:10660C00CBB80121FFF7F9BF13B503688DF807105C
:10661C00DC6B01224FF0FF330DF10701A04702B0F4
:10662C0010BD10B40368DC6B4FF0FF33A4465DF86B
:10663C00044B604713B5134602688DF80710D46BF2
:10664C000DF107010122A04702B010BD704738B50B
:10665C0043691A68002A054610DAB3F88620B3F8A5
:10666C0084309A420AD103681B699847044628B9BA
:10667C002B682846DB6A9847204638BD0120FCE78A
:10668C0043691868C043C00F70477047064B994266
:10669C0010B500F10C0405D0084600F049FC0028A8
:1066AC0008BF0024204610BDA87D0D0010B5AC21FC
:1066BC00044600F038FC204610BDFDF7E8BC2DE97F
:1066CC00F0414FF0000886B01D46C0F80480044627
:1066DC000E4617464146102202A800F057FD6B1CCF
:1066EC0009D04FF47A70B5FBF0F3CDE9023800FB1A
:1066FC00135358430490606910230093006802AB55
:10670C0041F2050240F6FF71FFF786F8002807DA20
:10671C00FFF7EEF903686360002006B0BDE8F08176
:10672C006069002300683A463146FFF795F8031E6E
:10673C00EEDB1846F1E7000038B584690A4B0360BC
:10674C0005467CB16368013B63605BB923682046F6
:10675C009B689847A368013BA3601BB9236820463C
:10676C00DB689847284638BDA87E0D0010B5044656
:10677C00FFF7E2FF20461C2100F0D5FB204610BDA0
:10678C0070B54D69054B04468C3544F8043B064600
:10679C000FCD0FC42B682370304670BDD87D0D0013
:1067AC0010B54369B3F88620B3F884309A42044696
:1067BC0005D06369B3F884201344187910BD0368BD
:1067CC001B6998470028F4D14FF0FF30F6E710B55D
:1067DC004369B3F88620B3F884309A42044608D053
:1067EC006369B3F88420511CA3F8841013441879FE
:1067FC0010BD03681B6998470028F1D14FF0FF309A
:10680C00F6E7F8B543691746B3F88620B3F8843039
:10681C009A4205460E4616D06969B1F88430B1F833
:10682C008640E41ABC4228BF3C4604332246194435
:10683C00304600F09DFC6A69B2F884302344A2F81B
:10684C0084302046F8BD03681B6998470028E3D1C3
:10685C004FF0FF34F5E742690023A2F88430426917
:10686C00A2F8863070472DE9F0411F4603680C46AC
:10687C00DB6A8AB0054616469847237DD5F8148006
:10688C00042B0CBF02200A2006220121FEF7ECFF8C
:10689C00C8F800006B691B68002B08DA2B682846C7
:1068AC00DB6A0024984720460AB0BDE8F0812846F0
:1068BC00FFF7D1FFB7B1002303A9F8B20393ADF8EA
:1068CC001030FEF7B9FE0028E8D168690623009362
:1068DC00006803AB41F20B0240F6FF71FEF79CFF20
:1068EC000028DBD11C22002103A800F04FFC237DE3
:1068FC00042B1DD14FF407733046ADF80C30FEF766
:10690C00EBFEADF80E006068FEF7DEFE04906B69DE
:10691C001C22186803A9FEF78FFF0028BED104348F
:10692C000FCC6D698C350FC523682B700124BAE729
:10693C0040F61C233046ADF80C30FEF7CDFE05AE0C
:10694C00ADF80E00231D04F114071868596832467F
:10695C0003C20833BB421646F7D1D8E730B54269BB
:10696C00B2F886308BB004462BB1B2F884209A4230
:10697C0001D1FFF770FF61690868002818DBB1F8D6
:10698C0086507F2D14D804310823C5F18002294488
:10699C00FEF75AFF002813DD6369B3F886200AB9A5
:1069AC00A3F884206369B3F886201044A3F886000A
:1069BC006369B3F88600B3F88430C01A0BB030BDED
:1069CC00FFF796F803680B2BF2D0FFF791F80368EA
:1069DC000B2BEDD020230025CDE90235FFF788F8ED
:1069EC0003680193084B0949009302AA2B463220F5
:1069FC00FEF7C2FF63691868FEF716FF63694FF074
:106A0C00FF321A60D4E700BF737E0D006C7E0D0060
:106A1C0010B5436904461868002801DBFEF704FF33
:106A2C0063694FF0FF321A606069112200218C30CB
:106A3C0000F0ACFB2046BDE81040FFF70CBF10B5D2
:106A4C00002304460160C0F884308830FFF700FC56
:106A5C00204610BD73B500234FF47A72C0E90132A1
:106A6C000E4A0361026043610446AC200191FDF7BC
:106A7C000AFB051E05F10C0608D00123C5E90133FC
:106A8C00074B01992B603046FFF7D9FF2046C4E92C
:106A9C000565FFF7E0FE02B070BD00BFA87E0D00DB
:106AAC008C7E0D0010B54FF0FF310446FFF7D2FF7E
:106ABC00204610BD10B504460068002801DBFEF727
:106ACC00B3FE204610BD0C30FFF7F4BF2DE9F043A8
:106ADC009846036893B00D460024DB6A06461746B9
:106AEC00984728466B46224621460094FEF764FDE3
:106AFC000546002863D1009B002B4BD05B69002B13
:106B0C0048D006A8FFF7A4FB009B5C696378022BB6
:106B1C0004D1211D06A8FFF767F926E00A2B24D122
:106B2C001122294601A800F031FBA368002B38D0B4
:106B3C0004F108030DF1040C183418685968624606
:106B4C0003C20833A3429446F7D1062301A90CA82B
:106B5C008DF81430FFF78AFB0DF1340CBCE80F00F4
:106B6C0007AC0FC4DCF80030237006A8FFF790FBCD
:106B7C0080B1336807ADD3F82090124B0C930FCD36
:106B8C000DAC0FC42B6823703A4643460CA9304613
:106B9C00C84705460098FEF707FD284613B0BDE828
:106BAC00F083E368002BC3D14FF6FF70D4F810903C
:106BBC00FEF78AFD8145BBD104F11401AAE72546F5
:106BCC00E8E700BFD87D0D00002240681146FEF7B3
:106BDC001FBF002240681146FEF73ABF00224068F2
:106BEC001146FEF745BF40680022FEF739BF4068EA
:106BFC00002281F00101FEF723BF002340681A46F2
:106C0C001946FEF715BF002240681146FEF7F0BE8C
:106C1C00406800220221FEF7F3BE002340681A46AA
:106C2C00FEF7DEBE024B04225A60024A1A6070471D
:106C3C00C4E70320F47E0D00002340681A46FEF7DB
:106C4C00CFBE406800220221FEF7DABE0022406867
:106C5C001146FEF7CDBE002240681146FEF7D8BEA5
:106C6C00002340681A461946FEF7DABE0023406836
:106C7C001A461946FEF7DCBE40680021FEF700BF3D
:106C8C0040680021FEF704BF4068002281F001013A
:106C9C00FEF7D6BE40680022FEF7E2BE0022406836
:106CAC001146FEF7E5BE002240681146FEF7D0BE45
:106CBC002DE9F043002495B016460D460746FFF724
:106CCC00C7FA214618220EA8009400F05FFA402360
:106CDC00CDE90C3421466B460CAA3046FEF76CFC11
:106CEC00044600284CD1024601216868FEF790FE4C
:106CFC000221804622466868FEF78AFE009E814685
:106D0C002146002E3CD000293AD17368022B03D0C7
:106D1C000A2B11D0F669F4E7B8F1000F0AD07169AB
:106D2C0006A8043107ADFFF7D7FA0FCD3C1D0FC4F1
:106D3C002B6823704146EDE7B9F1000F01D14946AC
:106D4C00E8E77469102201A800F020FA06238DF8F8
:106D5C00143001AD04F108031834186859682A4638
:106D6C0003C20833A3421546F7D101A906A807AD03
:106D7C00FFF77CFA0FCD3C1D0FC42B682370DEE7A8
:106D8C000098FEF711FC384615B0BDE8F083000002
:106D9C00024B034A1A6000225A607047CCE703206A
:106DAC00307F0D00232813B502D9002002B010BD8E
:106DBC00A0F10B03022B1AD8174C2178BFF35B8F71
:106DCC0011F001010BD120460191FDF76DF90199EC
:106DDC0028B11248FEF7E0FE2046FDF76AF90F4B8A
:106DEC001878FEF761FD0028DFD10120DEE70128CD
:106DFC0009D800F06BF80021007CFEF7FDFC80F058
:106E0C000100C0B2D2E709380128EED8FFF77CFBAD
:106E1C00007CFEF799FCF2E744E6032048E60320E9
:106E2C00232838B504460D460AD8FF2908D0FFF7A9
:106E3C00B9FF28B129462046BDE83840FEF7C4BB4F
:106E4C0038BD38B504460D46FEF7C6FBFF2810D0FA
:106E5C00062804D84D2323FA00F0C30709D4204692
:106E6C00FFF7A0FF28B129462046BDE83840FEF7C1
:106E7C00BBBB38BD10B50446FEF7AEFB031FDBB23F
:106E8C00012B08D92046FFF78DFF20B12046BDE825
:106E9C001040FEF7B1BB002010BD000038B5002338
:106EAC002025438014230446038085600561064930
:106EBC00284600F03AF804496060284600F035F89E
:106ECC00E060204638BD00BF647F0D0030B50F4D2B
:106EDC002978BFF35B8F11F0010487B013D12846DA
:106EEC00FDF7E2F878B101A8FFF7D8FF01AA214617
:106EFC000748FFF75FFB2846FDF7DBF8054A064914
:106F0C00034800F00BF8024807B030BDD8E7032067
:106F1C00DCE703206CE5032069650D000B46014698
:106F2C00184600F017B9FDF7B2B8FDF7AEB800007F
:106F3C00014900F0F9B800BF807F0D007FB5002437
:106F4C001023CDE90234036800949E698DF8044047
:106F5C0015466B461268B0479DF8043003F00603E3
:106F6C00062B03BF009B2B600120204604B070BD94
:106F7C000098904214BF01200620704710B5034BB7
:106F8C000360044600F0CDF8204610BDC07F0D0014
:106F9C0010B50446FFF7F2FF20460821FFF7C3FFA8
:106FAC00204610BD2DE9F0411F46DDE90834DDF81F
:106FBC00188098450646154607D1079900F0B4F895
:106FCC0018B165710020BDE8F0813946304600F0FB
:106FDC00ABF80028F6D00123C4F800802571A3710A
:106FEC00F0E738B515461C4600F09EF820B1082392
:106FFC00E36006232560237138BD73B505460C4646
:10700C0001921E4600F090F850B9032E08D8236860
:10701C00019A5B692946204602B0BDE870401847CA
:10702C0002B070BD10B5034B03600446FFF7A6FF1A
:10703C00204610BD20800D0010B50446FFF7F2FF6E
:10704C0020460C21FFF76FFF204610BDF7B5089FB7
:10705C00974205460E4614460AD0A868026808975F
:10706C00156A31462246AC4603B0BDE8F040604795
:10707C001946019300F058F8019B0028EDD006202A
:10708C0003B0F0BD2DE9F14F0D461946DDE90A4B71
:10709C00DDE90CA681461746984600F045F890B1FC
:1070AC00002D3460377109DB61198A450CBF06214C
:1070BC000121B171002001B0BDE8F08F0235F9D18A
:1070CC000123B371F6E7544506D15946484600F002
:1070DC002BF808B17771EDE7D9F808000368CDE912
:1070EC000CA6CDE90A4BDC693A4643462946A44630
:1070FC0001B0BDE8F04F60472DE9F04107460C4662
:10710C0015461E46FFF76DFF48B9B86803689F69BE
:10711C002A4633462146BC46BDE8F0416047BDE8EF
:10712C00F081704700207047814208B50ED040684E
:10713C0003782A2B0CD049680B782A2B08BF013115
:10714C0000F050F8B0FA80F0400908BD0120FCE7CF
:10715C000020FAE710B5054C13462CB10A4601463F
:10716C000220AFF3008010BD2046FCE700000000B9
:10717C000A44914200F1FF3300D1704710B511F869
:10718C00014B03F8014F9142F9D110BD0244034663
:10719C00934200D1704703F8011BF9E738B50D4B4A
:1071AC001D68AB6B04467BB91820FEF781FC0A4ABC
:1071BC000A4BA863C0E90023094B83600B2383812E
:1071CC0001220023C0E90423AB6B00221C615A612D
:1071DC0038BD00BF08E503200E33CDAB34126DE68D
:1071EC00ECDE050010F8012B11F8013B012A28BF39
:1071FC009A42F7D0D01A7047034613F8012B002A95
:10720C00FBD1181A013870471D400D0059400D0074
:10721C0081400D0085400D00000000005472616932
:10722C006C0064656661756C7420004D5342004CB3
:10723C005342003C53504953657474696E67732014
:10724C0064656661756C743E003C535049536574BB
:10725C0074696E67732025732575202573204D4F37
:10726C00444525753E0000000000003E5B4F5B3E30
:10727C003E6B4F6B3E1C3E7C3E1C183C7E3C181CEF
:10728C00577D571C1C5E7F5E1C00183C1800FFE7E6
:10729C00C3E7FF0018241800FFE7DBE7FF30483A8C
:1072AC00060E2629792926407F050507407F0525EE
:1072BC003F5A3CE73C5A7F3E1C1C08081C1C3E7F76
:1072CC0014227F22145F5F005F5F06097F017F003D
:1072DC006689956A606060606094A2FFA29408045D
:1072EC007E040810207E201008082A1C08081C2A7E
:1072FC0008081E101010100C1E0C1E0C30383E38D6
:10730C0030060E3E0E06000000000000005F00007C
:10731C000007000700147F147F14242A7F2A1223ED
:10732C001308646236495620500008070300001CFD
:10733C002241000041221C002A1C7F1C2A08083E06
:10734C000808008070300008080808080000606019
:10735C000020100804023E5149453E00427F400087
:10736C0072494949462141494D331814127F10275F
:10737C00454545393C4A49493141211109073649AE
:10738C00494936464949291E000014000000403482
:10739C000000000814224114141414140041221487
:1073AC000802015909063E415D594E7C1211127CAE
:1073BC007F494949363E414141227F4141413E7F0F
:1073CC00494949417F090909013E414151737F08EF
:1073DC0008087F00417F41002040413F017F081495
:1073EC0022417F404040407F021C027F7F040810F6
:1073FC007F3E4141413E7F090909063E4151215ED4
:10740C007F09192946264949493203017F01033F67
:10741C004040403F1F2040201F3F4038403F6314F6
:10742C0008146303047804036159494D43007F41F8
:10743C0041410204081020004141417F0402010235
:10744C00044040404040000307080020545478405A
:10745C007F284444383844444428384444287F38EE
:10746C005454541800087E090218A4A49C787F0870
:10747C0004047800447D40002040403D007F1028EB
:10748C00440000417F40007C047804787C080404AC
:10749C00783844444438FC1824241818242418FC44
:1074AC007C08040408485454542404043F44243CE9
:1074BC004040207C1C2040201C3C4030403C442858
:1074CC001028444C9090907C4464544C44000836F2
:1074DC004100000077000000413608000201020460
:1074EC00023C2623263C1EA1A161123A4040207A80
:1074FC0038545455592155557941225454784221C8
:10750C005554784020545579400C1E5272123955FE
:10751C0055555939545454593955545458000045FB
:10752C007C410002457D420001457C407D121112D8
:10753C007DF0282528F07C545545002054547C546B
:10754C007C0A097F4932494949323A4444443A3227
:10755C004A4848303A4141217A3A42402078009DCD
:10756C00A0A07D3D4242423D3D4040403D3C24FF79
:10757C002424487E4943662B2FFC2F2BFF0929F628
:10758C0020C0887E090320545479410000447D4179
:10759C003048484A32384040227A007A0A0A727DD2
:1075AC000D19317D2629292F2826292929263048ED
:1075BC004D4020380808080808080808382F10C85B
:1075CC00ACBA2F102834FA00007B000008142A14DF
:1075DC002222142A14085500550055AA55AA55AA5A
:1075EC00FF55FF55FF000000FF00101010FF0014A6
:1075FC001414FF001010FF00FF1010F010F0141402
:10760C0014FC001414F700FF0000FF00FF1414F426
:10761C0004FC141417101F10101F101F1414141F27
:10762C0000101010F0000000001F101010101F10A0
:10763C00101010F010000000FF101010101010109F
:10764C001010FF10000000FF140000FF00FF0000EE
:10765C001F10170000FC04F414141710171414F462
:10766C0004F40000FF00F714141414141414F7009D
:10767C00F7141414171410101F101F141414F414EE
:10768C001010F010F000001F101F0000001F14005D
:10769C000000FC140000F010F01010FF10FF141488
:1076AC0014FF141010101F00000000F010FFFFFF5B
:1076BC00FFFFF0F0F0F0F0FFFFFF0000000000FF14
:1076CC00FF0F0F0F0F0F3844443844FC4A4A4A341A
:1076DC007E02020606027E027E0263554941633831
:1076EC0044443C04407E201E2006027E020299A5E2
:1076FC00E7A5991C2A492A1C4C7201724C304A4D40
:10770C004D303048784830BC625A463D3E49494974
:10771C00007E0101017E2A2A2A2A2A44445F44441D
:10772C0040514A444040444A51400000FF0103E0AC
:10773C0080FF000008086B6B083612362436060FE3
:10774C00090F06000018180000001010003040FF50
:10775C000101001F01011E00191D1712003C3C3CC9
:10776C003C000000000000000000000000000000D1
:10777C000000000000000000F1490D003D5F0D000D
:10778C00A1400D00F9430D00FB430D002D440D00ED
:10779C0009440D001B440D003D430D00F9430D0041
:1077AC0025460D009F450D0045440D0083440D00FA
:1077BC00BD440D0003450D00A1450D001F450D00F6
:1077CC000000000000000000014B0D00214B0D00DB
:1077DC00F1490D003D5F0D00E54C0D00F9430D0026
:1077EC00FB430D002D440D0009440D001B440D00FE
:1077FC003D430D00F9430D0025460D009F4E0D0035
:10780C0033540D00E5530D00BD440D0003450D0030
:10781C00A1450D001F450D000000000000000000F8
:10782C00E9420D00BD420D00BF420D0000000000FA
:10783C000001800000000000000000000380000038
:10784C000000000000000007C00000000000000065
:10785C00000007C00000000000000000000FC00086
:10786C0000000000000000001FE00000000000000D
:10787C000000001FE00000000000000000003FE0DE
:10788C000000000000000000003FF00000000000BD
:10789C00000000007FF0000000000000001FF87FD7
:1078AC00F0000000000000003FFE7FF00000000030
:1078BC000000003FFF7FF0000000000000001FFFF1
:1078CC00FBE0000000000000000FFFF9FFC000000B
:1078DC00000000000FFFF9FFF80000000000000797
:1078EC00FFF1FFFF00000000000003FC73FFFF80AE
:1078FC00000000000001FE3FFFFF800000000000C0
:10790C0000FF1E0FFF000000000000007FFE1FFCA8
:10791C00000000000000003FFFFFF8000000000026
:10792C0000000FDFFFE0000000000000001F19FF47
:10793C00C0000000000000003F3CFF000000000001
:10794C000000007E7CF800000000000000007FFEBC
:10795C007C0000000000000000FFFFFC00000000A5
:10796C0000000000FFFFFE0000000000000000FF10
:10797C00FFFE0000000000000001FFEFFE00000011
:10798C000000000001FFCFFE00000000000000031B
:10799C00FF07FE0000000000000003FC07FE0000D3
:1079AC00000000000003F003FE00000000000000D7
:1079BC00018000FE000000000000000000007E00BE
:1079CC000000000000000000003E0000000000006D
:1079DC00000000000C000000000000078000FC000C
:1079EC000003C0000000078001FC000003C0000081
:1079FC0000078001FC000003C0000000078001E0CC
:107A0C000000001E000000078001E00000001E00C6
:107A1C007FE3F79FF9FDE7787BDFC0FFF7FFBFFD42
:107A2C00FDFF787BDFC0FFF7FFBFFDFDFF787BDF3D
:107A3C00C0F0F787BC3DE1FF787BDE00F0F787BC38
:107A4C003DE1F0787BDE0000F787803DE1E0787B5C
:107A5C00DE007FF7879FFDE1E0787BDE00FFF78794
:107A6C00BFFDE1E0787BDE00F0F787BC3DE1E0781C
:107A7C007BDE00F0F787BC3DE1E0787BDE00F0F7C1
:107A8C0087BC3DE1E0787BDE00FFF7FFBFFDE1E066
:107A9C007FFBDFC0FFF7FFBFFDE1E07FFBDFC07CBA
:107AAC00F3F39F3DE1E03E7BCFC0000000000000FF
:107ABC000000000000FFFFFFFFFFFFFFFFFFFFC004
:107ACC00FFFFFFFFFD68DB111A31C0FFFFFFFFFD59
:107ADC002B5AFB6AEFC0FFFFFFFFFD4B5B3B1A33DA
:107AEC00C0FFFFFFFFFD6B5BDB6AFDC000006000A9
:107AFC0000000000000000000000000000E000009A
:107B0C00000000000000000000000001E000000088
:107B1C000000000000000000000001F00000000068
:107B2C0000000000000000000003F0000000000056
:107B3C00000000000000000007F000000000000042
:107B4C000000000000000007F8000000000000002A
:107B5C000000000000000FF800000003C0007E00D1
:107B6C000001E0007F0FF800000003C000FE0000E1
:107B7C0001E000FFEFF800000003C000FE00000170
:107B8C00E000FFFFF800000003C000F00000000F51
:107B9C00007FFE7FC0000003C000F00000000F005B
:107BAC003FFE7FF83FF1FBCFFCFEF3BC3DEFE01F47
:107BBC00FE7FFF7FFBFFDFFEFEFFBC3DEFE01FC63D
:107BCC00FFFF7FFBFFDFFEFEFFBC3DEFE00FE3C7D7
:107BDC00FE787BC3DE1EF0FFBC3DEF0007FF87FC89
:107BEC00787BC3DE1EF0F83C3DEF0001FFFFF00098
:107BFC007BC3C01EF0F03C3DEF0001F37FE03FFB88
:107C0C00C3CFFEF0F03C3DEF0003E33F807FFBC3AE
:107C1C00DFFEF0F03C3DEF0007E73C00787BC3DE75
:107C2C001EF0F03C3DEF0007FFBE00787BC3DE1E6C
:107C3C00F0F03C3DEF0007FFFE00787BC3DE1EF04A
:107C4C00F03C3DEF000FFFFE007FFBFFDFFEF0F08E
:107C5C003FFDEFE00FFFFF007FFBFFDFFEF0F03F8B
:107C6C00FDEFE00FF9FF003E79F9CF9EF0F01F3DDC
:107C7C00E7E01FF1FF000000000000000000000022
:107C8C00001F80FF007FFFFFFFFFFFFFFFFFFFE0F4
:107C9C001C007F007FFFFFFFFEB46D888D18E00095
:107CAC00001F007FFFFFFFFE95AD7DB577E0000064
:107CBC000F007FFFFFFFFEA5AD9D8D19E0000006B4
:107CCC00007FFFFFFFFEB5ADEDB57EE000000000CC
:107CDC0000000000B94C0D00D14C0D00F1490D0015
:107CEC003D5F0D00E54C0D00F9430D00FB430D000D
:107CFC002D440D0009440D001B440D003D430D00A7
:107D0C00F9430D0025460D009F4E0D0033540D0018
:107D1C00E5530D00BD440D0003450D00A1450D00BC
:107D2C001F450D000080C0E0F0F8FCFE00010307C9
:107D3C000F1F3F7FAED580A8D300408D2000A1C877
:107D4C00DB40A4A62EAFDA02818FDA1281DA02812F
:107D5C002200FF21000000000000000000000000D5
:107D6C007B5B0D00715B0D00675B0D005D5B0D00B7
:107D7C00515B0D00455B0D00856C0D008D6C0D008D
:107D8C00395B0D00315B0D00275B0D001D5B0D0099
:107D9C00BD6C0D00000810182028303800000000C1
:107DAC00000000006170700025592D256D2D256493
:107DBC005425483A254D3A2553257A00617363744E
:107DCC00696D65000000000000000000F9610D0005
:107DDC00E9610D00EB610D000000000000000000E7
:107DEC0005630D006D630D0043630D003D5F0D00D9
:107DFC0035630D0007630D0017630D0067630D00FD
:107E0C0027630D0001630D0000000000000000005E
:107E1C006D640D00D9640D00B1640D003D5F0D0063
:107E2C0081640D009D640D008F640D00AB640D002A
:107E3C006F640D0073640D00000000000000000072
:107E4C0069650D00B3650D008B650D006B650D004C
:107E5C0093650D009B650D00A3650D00AB650D00D2
:107E6C00776972696E670072656376206572726FEE
:107E7C0072203D202564000000000000000000007E
:107E8C0097660D00B9660D00D36A0D00C7660D002C
:107E9C0099660D00000000000000000045670D0011
:107EAC0079670D0015660D002F660D0069690D00D0
:107EBC00DB670D00AD670D0059660D0073680D0092
:107ECC00D96A0D000F680D001D6A0D005B660D0070
:107EDC008D660D0041660D00CB660D008D670D00A3
:107EEC000000000000000000276C0D001D6C0D0050
:107EFC00136C0D00D56B0D0065600D00076C0D004B
:107F0C00856C0D008D6C0D00FB6B0D00F36B0D0083
:107F1C00E96B0D00DF6B0D00BD6C0D000000000067
:107F2C0000000000456C0D004F6C0D00596C0D00ED
:107F3C00636C0D006D6C0D00796C0D00856C0D0083
:107F4C008D6C0D00956C0D00A16C0D00A96C0D00D5
:107F5C00B36C0D00BD6C0D0000537431395F537060
:107F6C005F6D616B655F7368617265645F74616797
:107F7C0000000000C07F0D00657F0D0020800D000B
:107F8C00947F0D0044800D004E31305F5F63787834
:107F9C00616269763131375F5F636C6173735F74F3
:107FAC007970655F696E666F450000000000000027
:107FBC00887F0D00896F0D009D6F0D0031710D00D4
:107FCC0031710D0007700D00496F0D00EF6F0D0042
:107FDC00B16F0D007D6F0D0020800D00F07F0D0046
:107FEC00887F0D004E31305F5F637878616269760F
:107FFC003132305F5F73695F636C6173735F747987
:10800C0070655F696E666F4500000000000000003F
:10801C00E47F0D0031700D0045700D0031710D00C5
:10802C0031710D0007700D00496F0D0005710D00C9
:10803C0091700D0059700D00C07F0D004C800D002B
:10804C00537439747970655F696E666F0000000057
:10805C0051420D00855B0D00155D0D00155F0D0087
:10806C0071600D0081600D00A9600D00316C0D0078
:04807C009D6D0D00E9
:0480800000000000FC
:10808400C87D0D000CE50320000000000000000086
:1080940000000000000000000000000000000000DC
:1080A40000000000000000000000000000000000CC
:1080B40000000000000000000000000000000000BC
:1080C40000000000000000000000000000000000AC
:1080D400000000000000000000000000000000009C
:0880E400000000000000000094
:1080EC00FFFFFFFF00000102030405060708090A51
:1080FC000B0C0D0E0F101112131415161718191A4C
:08810C001B1C1D1E1F20280092
:048114007856341253
:04000003D000401CCD
:00000001FF
